:020000040800F2
:10000000280D0020290200080B2D00089D2900085A
:10001000092D000835070008193500080000000008
:10002000000000000000000000000000552E000845
:10003000C90B0008000000000D2D0008572E000815
:10004000430200084302000843020008430200087C
:10005000430200084302000843020008430200086C
:100060004302000843020008430200083907000861
:100070004302000843020008450700085107000832
:100080005D070008690700084302000843020008F2
:10009000430200084302000843020008430200082C
:1000A000430200084302000843020008430200081C
:1000B000012F000843020008430200084302000821
:1000C00043020008430200084302000843020008FC
:1000D000112D0008D1340008E9340008430200085B
:1000E000CB0B00084302000843020008430200084B
:1000F0004302000843020008430200087507000895
:1001000043020008430200084302000843020008BB
:1001100043020008A530000843020008430200081B
:1001200043020008810700088D0700084302000809
:100130004302000800000000000000004302000825
:10014000430200084302000843020008430200087B
:100150004302000899070008A507000801350008B8
:10016000430200084302000843020008430200085B
:1001700043020008430200080000000000000000E5
:10018000430200084302000800F002F800F03CF8C7
:100190000AA090E8000C82448344AAF10107DA45E2
:1001A00001D100F031F8AFF2090EBAE80F0013F0F8
:1001B000010F18BFFB1A43F0010318479C3A0000D7
:1001C000BC3A0000103A24BF78C878C1FAD8520768
:1001D00024BF30C830C144BF04680C6070470000C1
:1001E0000023002400250026103A28BF78C1FBD840
:1001F000520728BF30C148BF0B6070471FB503F0DE
:1002000011FD1FBD10B510BD00F001F91146FFF73B
:10021000F5FF03F0E5F900F01FF903B4FFF7F2FF73
:1002200003BC00F027F9000009488047094800474F
:10023000FEE7FEE7FEE7FEE7FEE7FEE7FEE7FEE796
:10024000FEE7FEE704480549054A064B70470000F3
:10025000F12E00088901000828070020280D002041
:10026000280900202809002053EA020C00F06980C8
:100270002DE9F04B4FF00006002B1FBFB3FA83F5BA
:1002800003FA05F424FA05F65E4012BF1643B2FAEB
:1002900082F502FA05F4C5F120051EBF22FA05FC1D
:1002A00044EA0C04203556EA044C4FEA144418BFC3
:1002B000641C4FF000084FF00009904271EB030CF2
:1002C00039D3002919BFB1FA81F701FA07F6B0FA5C
:1002D00080F700FA07F6C7F120071EBF20FA07FCD7
:1002E00046EA0C062037B6FBF4FCA7EB0507103FE7
:1002F00007F01F0BCBF120060CFA0BFB2CFA06F6CD
:1003000044BFB3460026202FA4BF5E464FF0000B2B
:100310005BEA060C08BF4FF0010B19EB0B09ABFBB6
:10032000027C48EB0608C01B06FB02CC0BFB03CC8F
:1003300071EB0C01C1E70B46024641464846BDE859
:10034000F08B13B54FF000004FF00001AFF30080C9
:10035000BDE81C40704710B5203AC0F00B80B1E8F2
:100360001850203AA0E81850B1E81850A0E81850EA
:10037000BFF4F5AF5FEA027C24BFB1E81850A0E8F3
:10038000185044BF18C918C0BDE810405FEA827C0D
:1003900024BF51F8043B40F8043B08BF7047D20724
:1003A00028BF31F8023B48BF11F8012B28BF20F8C5
:1003B000023B48BF00F8012B70474FF0000200B528
:1003C000134694469646203922BFA0E80C50A0E878
:1003D0000C50B1F12001BFF4F7AF090728BFA0E826
:1003E0000C5048BF0CC05DF804EB890028BF40F8F2
:1003F000042B08BF704748BF20F8022B11F0804F34
:1004000018BF00F8012B704770477047704775465A
:1004100000F02CF8AE4605006946534620F0070070
:10042000854618B020B5FFF70DFFBDE820404FF01E
:1004300000064FF000074FF000084FF0000B21F0CE
:100440000701AC46ACE8C009ACE8C009ACE8C0099B
:10045000ACE8C0098D46704710B50446AFF3008084
:100460002046BDE81040FFF7D8BE000000487047A6
:10047000C806002001491820ABBEFEE72600020096
:100480007047000070B500F053F84FF60475AE1ECB
:10049000112000F00DF90446052000F069FDAC4282
:1004A00001D0B442F4D104F00F00204CE06240F2DD
:1004B000556000F0FDF820614FF4005000F0F8F8AE
:1004C0004FF4045000F0F4F860210B2000F016F90E
:1004D0003E210C2000F012F904210D2000F00EF94D
:1004E00001210E2000F00AF90F21084600F006F95C
:1004F0004FF42C5000F0DCF860804FF4305000F0E6
:10050000D7F84FF4806000F0D3F8A0804FF4E0609B
:1005100000F0CEF8E080332000F0CAF860610120DE
:100520006070BDE87040642000F022BD2000002013
:1005300010B5094C00220421204600F056FE05208B
:1005400000F016FD01220421204600F04EFE14208A
:1005500000F00EFD012010BD0008024070B54E49AC
:1005600005462DED048B01F11404088840BA208261
:1005700008794A79000440EA02208A791043206011
:100580000A7A4B7A120442EA03228B7A1A43626097
:100590000A7B4B7B120442EA03228B7B1A43A26044
:1005A0000A7C4B7C1204897C42EA03220A43012123
:1005B0009FED3A9BE260B0EE490AF0EE690A00F066
:1005C00073FA9FED388B51EC100B53EC182B03F0A2
:1005D0002BFA03F045F860610121B0EE490AF0EE14
:1005E000690A606800F060FA53EC182B51EC100BAC
:1005F00003F01AFA03F034F8A0610121B0EE490AC1
:10060000F0EE690AA06800F04FFA53EC182B51EC99
:10061000100B03F009FA03F023F8E0610121B0EEBA
:10062000490AF0EE690AE06800F03EFA53EC182B34
:1006300051EC100B03F0F8F903F012F81B4920629B
:10064000A4F120008A6994ED070A00EB820383ED90
:10065000000AD0ED000A90ED010AF4EE400AF1EE36
:1006600010FA09D1D0ED020AB4EE600AF1EE10FAE8
:1006700002D1C869401CC861521C8A61042A01D198
:10068000002088612846BDEC048B2422BDE8704020
:1006900001491431FFF75FBE14060020000000007E
:1006A00000000440000000000080584020000020AE
:1006B000094910B54870000A08702831064800F052
:1006C00023F805492831A1F1240000F01DF8024863
:1006D0002830008840BA10BD28000020064B4FF497
:1006E000805128B1012805D10122184600F07DBDB6
:1006F0000022FAE7704700000004024041EA0020AF
:1007000040F48040FFF7D4BF38B505460C460020C2
:10071000FFF7E4FF642000900423224629460448A2
:1007200001F0EAF9BDE838400120FFF7D7BF00002B
:1007300074000020FEE70000014800F0A7BA0000A6
:10074000F4020020014800F0A1BA0000CC00002013
:10075000014800F09BBA00002C010020014800F085
:1007600095BA000074040020014800F08FBA000020
:10077000D4040020014800F089BA0000540300208E
:10078000014800F083BA000034050020014800F061
:100790007DBA0000B4030020014800F077BA0000E1
:1007A00094050020014800F071BA000014040020F4
:1007B00001681823CAB2103AB2FBF3F2054B6FF38B
:1007C0000901032A9B5CC36500D9091D81650846A0
:1007D00070470000383C000810B5014600208B69C6
:1007E0008A6A4FF0C07453B1B3F5005F15D072B18F
:1007F000012A0CD0022A0AD0032A09D104E01AB136
:10080000012A06D0022A03D1C96AC90100D50120F4
:1008100010BDC96AA142FAD010BD002AF7D0012A42
:10082000F2D0022AF3D0032AF3D010BD30B5046809
:10083000256825F480252560046863608368402B63
:10084000036803D099600068C26030BD9A60006898
:10085000C16030BD70B5002400F05AF84FF4006557
:10086000134E04E0641CE4B2012002F091FE29461C
:10087000304600F0B5FC10B1C82CF3D301E0C82C11
:1008800001D3012070BD002404E0641CE4B2012007
:1008900002F07EFE2946304600F0A2FC18B1F02C92
:1008A00004D3022070BDF02CEFD3FAE7002070BD16
:1008B0000000024010B52DED028B00F0B5F800F0FD
:1008C00097F8FFF7C7FFCC2000F0BCF8BE2000F07F
:1008D000B9F800F07DF8044600F07AF8000201B2A1
:1008E0009FED098B51EA040001D5C043401C03F081
:1008F00070F853EC182B03F097F802F0B1FEBDEC42
:10090000028B00EE100A10BD000000000000B03F96
:1009100000B585B04FF4006000900020019069465A
:10092000024800F065FB05B000BD00000000024079
:1009300000B585B04FF400600090012001900220C6
:1009400003906946024800F053FB05B000BD00006B
:100950000000024000B585B04FF400600090012017
:1009600001900290022003906946044800F040FB89
:1009700000F03EF8FFF76EFF05B000BD000002403A
:1009800070B5FFF7D5FF114D4FF4006400222146EA
:10099000284600F02AFC022002F0FAFD012221463E
:1009A000284600F022FCFFF7B3FF0C2002F0F0FD18
:1009B0002146284600F014FC08B1012400E0002480
:1009C000322002F0E5FD204670BD0000000002402C
:1009D00070B500255FF00104FFF7D2FFC001641C71
:1009E00040EA5500E4B2C5B2082CF5D9284670BDDE
:1009F00070B5FFF79DFF0B4D4FF4006400222146B8
:100A0000284600F0F2FB40F2EE2002F0C1FD012288
:100A10002146284600F0E9FBBDE870400F2002F0B7
:100A2000B7BD00000000024010B5FFF7E1FFFFF77F
:100A300011FFCC2000F006F8BDE81040442000F083
:100A400001B800002DE9F0410546FFF771FF0124D0
:100A5000144FE60215F0010F4FEA55054FF0000262
:100A6000314638460BD000F0C0FB022002F090FD6A
:100A700001223146384600F0B8FB3C200AE000F085
:100A8000B4FB3C2002F084FD01223146384600F0E0
:100A9000ACFB022002F07CFD641CE4B2082CD9D926
:100AA000BDE8F0810000024070B504462DED028BD8
:100AB0000502B0EE408AF0EE608A084602F0A0FF20
:100AC000002D14DA41EC100B6FF07F45A54353EC79
:100AD000102B51EC180B02F0F5FD41EC180B2846D9
:100AE00002F08EFF41EC100B9FED111B10E041EC6A
:100AF000100B51EC180B53EC102B02F0E3FD41EC02
:100B0000180B204602F07CFF41EC100B9FED0A1BF6
:100B100051EC100B53EC112B02F0D4FD53EC182BBD
:100B200002F082FFBDEC028B41EC100B70BD0000A7
:100B3000000000C0FFFF5FC1000000C0FFFF5F4179
:100B400010B51E4CAA2004F8070B04F8060C002070
:100B500004F8050C19483038816844F8041C00F189
:100B600010018A68226000F1200293686360808926
:100B70000001A08288890001E08290890001208321
:100B8000A1F158004169A1608169E160C0692061FB
:100B90000B4890ED000ABDEEC00A10EE100A60830B
:100BA000064802F0CAFC2077BB206077BDE8104001
:100BB00025220249034801F0ADBE0000A006002036
:100BC00000000020D401002070474FF4805000F056
:100BD00003BA72B6FEE72DE9F0410446876D00F0D6
:100BE00009FB064694F835000025022806D080202F
:100BF000606584F834500120BDE8F0812068016808
:100C000021F0160101602068416921F080014161F5
:100C1000206C08B9A06C20B12068016821F008019F
:100C200001602068016821F0010101600CE000F022
:100C3000E1FA801B052807D920206065032084F88D
:100C4000350084F83450D7E720680068C007EED13B
:100C500094F85C103F208840B860012084F835008B
:100C600084F834500020C7E790F83510022903D0EB
:100C70008021416501207047052180F8351000680A
:100C8000016821F001010160002070472DE9F8435F
:100C900004464FF00009CDF8009063484FF4165118
:100CA000A56D0068B0FBF1F72E6894F85C10082081
:100CB00000FA01F131420FD021680A6852070BD5C2
:100CC0000A6822F004020A6094F85C108840A86068
:100CD000606D40F00100606594F85C104FF0010811
:100CE00008FA01F0304208D021684969090604D5A4
:100CF000A860606D40F00200606594F85C1004200C
:100D00008840304208D021680968890704D5A86066
:100D1000606D40F00400606594F85C10102088401D
:100D2000304218D021680968090714D5A8602068E6
:100D30000168490304D50068000308D5A16C07E0E9
:100D40000168C90503D4016821F008010160216C24
:100D500009B12046884794F85C1020208840304232
:100D600031D021680968C9062DD5A86094F83500EE
:100D700005282068016806D0490347D500680003AC
:100D80001DD4616C1CE021F01601016020684169EE
:100D900021F080014161206C08B9A06C20B120686D
:100DA000016821F00801016094F85C103F20884040
:100DB000A86084F8358084F83490216D1FE0E16BE1
:100DC00009B120468847606D00282BD0606DC007B0
:100DD00014D0052084F835002068016821F0010155
:100DE00001600098401C0090B84203D82068006859
:100DF000C007F6D184F8358084F83490E16C00297E
:100E000010D001B02046BDE8F04308470168C9058D
:100E1000D5D4016821F01001016084F8358084F890
:100E20003490CCE7BDE8F8831C0000202DE9F041A8
:100E3000044600F0DFF906465CB1022084F8350074
:100E4000002584F834502068016821F00101016018
:100E50000DE00120BDE8F08100F0CCF9801B0528F1
:100E600005D920206065032084F83500F2E720686A
:100E70000068C007F0D12268116820480140D4E919
:100E800001031843D4E90336334318436369184315
:100E9000A3691843E3691843236A18430843616A46
:100EA000042903D1D4E90B131943084310602068C7
:100EB0004069666A20F0070130460E430127042886
:100EC0000CD1A06A0643E06A40B12046FFF784FCDB
:100ED00020B14020606584F83570BAE7206846612B
:100EE0002046FFF765FC94F85C203F21914081602B
:100EF000656584F835700020ACE700003F8010F095
:100F00002DE9F0410446866D90F834000025012853
:100F10000DD0012084F8340094F835700020012FA2
:100F200007D084F8340002252846BDE8F08102206D
:100F3000FBE7022784F8357060652046FFF776FCF2
:100F400094F85C103F208840B0602068016841F050
:100F500016010160206C20B12068016841F0080191
:100F600001602068016841F001010160DCE70000D8
:100F700070B5044600F03EF90546601C02D00448F6
:100F80000078044400F036F9401BA042FAD370BD4B
:100F90001000002008B5B0F5805F16D10B48016A3B
:100FA000491C0162012101700020FFF797FB3220EC
:100FB000074A00901423A2F12001064800F09CFD8E
:100FC000BDE808400120FFF789BB08BD20000020D4
:100FD0001406002074000020044910B50A6802427B
:100FE00002D00860FFF7D6FF10BD0000143C01409E
:100FF0002DE9F84FDFF8BCA10022012503264FF0B0
:101000000F090AF1040BAAF1040E00BF0B6805FAE0
:1010100002F42340A34270D10F7907F00307012F98
:1010200001D0022F16D187684FEA420806FA08FC61
:1010300027EA0C07D1F80CC00CFA08FC4CEA070CA4
:10104000C0F808C04768A7430C79C4F30014944063
:101050003C4344600C79E443A4070AD0C4684FEAD7
:10106000420C06FA0CF7BC438F6807FA0CF72743CB
:10107000C7600C7904F00304022C12D1D40800EBF1
:10108000840CDCF820405707FF0E09FA07F824EA21
:101090000804D1F8108008FA07F848EA0408CCF8E8
:1010A000208004684FEA420C06FA0CF7BC430F7923
:1010B00007F0030707FA0CF7274307604C6814F49E
:1010C000403F70D03C4C276847F480472760246835
:1010D00022F0030704F480440094384C07EB040C1E
:1010E000DCF8084897074FEA177809FA08F7BC4375
:1010F000334FB84202D1002724E054E0314FB842C8
:1011000001D101271EE0304FB84201D1022719E07A
:101110002E4FB84201D1032714E02D4FB84201D120
:1011200004270FE02B4FB84201D105270AE02A4FD0
:10113000B84201D1062705E0284FB84201D1072760
:1011400000E0082707FA08F72743CCF80878DAF810
:1011500000405746D1F804C09C435FEACC2C00D530
:101160001C433C60DBF800405F46D1F804C09C4360
:101170005FEA8C2C00D51C433C60DEF800407746CB
:10118000D1F804C09C435FEA8C3C00D51C433C6012
:10119000084F083F3C68D1F804C09C435FEACC3C50
:1011A00000D51C433C60521C102AFFF42FAFBDE851
:1011B000F88F0000083C01404438024000300140F4
:1011C000000002400004024000080240000C0240FF
:1011D000001002400014024000180240001C0240AF
:1011E0000069084000D0012070470AB18161704752
:1011F0000904FBE7014880687047000010000020E8
:101200000248816802781144816070471000002014
:101210000B4810B5016841F400710160016841F4A8
:1012200080610160016841F480710160032000F079
:101230006FF80F2000F006F800F024F8002010BD31
:10124000003C024070B50D4D04464FF47A71287889
:10125000B1FBF0F00A490968B1FBF0F000F044FD81
:1012600048B9102C07D200222146501E00F030F859
:1012700000206C6070BD012070BD000010000020D7
:101280001C0000200A4808B5016841F48041016053
:10129000006800F4804000900548001F016841F09C
:1012A00080510160006800F08050009008BD00008F
:1012B00044380240002809DB00F01F020121914060
:1012C0004009800000F1E020C0F8001170470000E4
:1012D000F0B40E4B1B680C46C3F30223C3F10705A1
:1012E000042D00D90425191D072901D2002300E08F
:1012F000DB1E012606FA05F1491E214099409E4059
:10130000761E16403143F0BC02F007B90CED00E048
:10131000064900F0070208684FF6FF03184040EA4C
:101320000220034A10430860704700000CED00E003
:101330000000FA052DE9F0470E46050065D0DFF8FC
:101340001481D8F80000F7B200F00700B04207D2CD
:1013500088F80070D8F8000000F00700B04254D1BF
:1013600028683D4C810712D5400703D5206840F41A
:10137000E05020602878000703D5206840F46040E2
:1013800020602068A96820F0F000084320602878D9
:10139000C0072DD0304968680839012812D00228CA
:1013A00013D0032811D00968890700292DDA216894
:1013B00021F0030101432160FFF71CFF814641F248
:1013C000883A0EE009688903EFE709688901ECE7CC
:1013D000FFF710FFA0EB0901514502D90320BDE83A
:1013E000F0872068696800F00C00B0EB810FEFD146
:1013F000D8F80010404601F00701B14207D9077044
:10140000006800F00700B04201D00120E7E728782B
:10141000400705D52068E96820F4E05008432060C3
:101420002878000706D52068296920F4604040EA42
:10143000C100206000F038F82168084AC1F30311A8
:10144000515CC8400649086006480068FFF7FAFE8C
:101450000020C4E7003C024008380240403C00083D
:101460001C00002014000020044805490068096899
:10147000044AC1F38221515CC84070471C0000201F
:1014800008380240503C00080448054900680968D3
:10149000044AC1F34231515CC84070471C0000202F
:1014A00008380240503C0008104810B5006810F0A1
:1014B0000C010F4818D0042916D0082914D10B4C60
:1014C000241F216801F03F02216821680023C1F335
:1014D0008811A1FB0001FEF7C7FE2168C1F301419D
:1014E000491C4900B0FBF1F010BD00000838024073
:1014F0000024F4002DE9F84F04006ED02078DFF8C6
:101500004C93C007A9F104054AD009F10400016811
:10151000C1F38101012908D00068C0F381000228CD
:101520000AD1D9F80000400206D52868800337D5D3
:1015300060680028E1D033E06068B0F5803F10D0EB
:10154000B0F5A02F286810D020F4803028602868DB
:1015500020F4802028606068A8B1FFF74BFE0646A3
:101560000DE0286840F48030F4E740F480202860E3
:10157000F7E700BFFFF73EFE801B642873D828689A
:101580008003F7D50CE0FFF735FE064605E000BF07
:10159000FFF730FE801B6428F0D828688003F7D45A
:1015A0002078DFF8AC8280074FF0000A3ED5A748CC
:1015B000001D016811F00C0F08D00068C0F3810015
:1015C00002280BD1D9F80000400207D42868800710
:1015D00016D5E068012800D112E033E1E068B8B127
:1015E0000120C8F80000FFF705FE064605E000BF31
:1015F000FFF700FE801B0228C0D828688007F7D5B7
:101600002868216920F0F80040EAC10028600DE058
:10161000C8F800A0FFF7EEFD064604E0FFF7EAFD7C
:10162000801B02281FD828688007F7D4207800077D
:1016300022D5864F87486169703771B101210160F9
:10164000FFF7D8FD064604E0FFF7D4FD801B022813
:1016500009D838688007F7D50EE0C0F800A0FFF77A
:10166000C9FD064605E082E0FFF7C4FD801B0228A5
:101670007DD838688007F7D42078400768D5DFF830
:10168000CCB100270BF13C0BDBF80000C0000BD401
:10169000DBF8001041F08051CBF80010DBF80000BF
:1016A000012700F0805000906B4E3068C00510D4C8
:1016B000306840F480703060FFF79CFD009005E0DA
:1016C000FFF798FD0099401A022850D83068C005ED
:1016D000F6D55E4EA0686C3601280FD0052830681C
:1016E00010D020F001003060306820F0040030603D
:1016F000A068B8B1FFF77EFD00900FE0306840F0C1
:101700000100F4E740F004003060F7E7FFF772FDF6
:101710000099411A41F28830814266D830688007CA
:10172000F4D50EE0FFF766FD009007E0FFF762FDDD
:101730000099411A41F28830814256D830688007BA
:10174000F4D42FB1DBF8001021F08051CBF8001059
:10175000A069C8B33D49091D0968C1F38101022987
:101760004AD00228504607D0C8F8600000E03CE0AC
:10177000FFF740FD04463BE04746C8F86000FFF72E
:1017800039FD064605E000BFFFF734FD801B022847
:101790002BD828688001F7D4D4E907010843A16A4F
:1017A0002E4A490802EB0141626A41EA821108436C
:1017B00094F82C1040EA0161C9F800100120386645
:1017C000FFF718FD044606E03EE000BFFFF712FDFC
:1017D000001B022809D828688001F7D534E000BF33
:1017E000FFF708FD001B022802D90320BDE8F88F8F
:1017F00028688001F4D427E00128F7D0D9F8000048
:10180000E26900F4800191421CD1226A00F03F019C
:10181000914217D147F6C071626A0140B1EB821F55
:1018200010D1A26A4FF0FF3300F4403103EB5202B3
:10183000B1EB024F06D194F82C1000F07060B0EBC1
:10184000016F01D00120D1E70020CFE7043802402A
:1018500000004742800E4742007000400000FFFF3A
:101860007047000038B5016804464A688868C0437C
:10187000430606D5C30704D1D3435B0601D4216CCC
:1018800005E0830708D4D3431B0605D4616C01B07F
:101890002046BDE830400847830603D5430601D5FE
:1018A000C30551D4D3439B064ED443060AD494F8BF
:1018B0005130032B49D0636D43F004036365CB685B
:1018C0008B680093830609D4636D43F0010363655D
:1018D0008B6800930B6823F040030B60C00506D4AF
:1018E000606D40F008006065206880680090606D61
:1018F000002829D02068416821F0E00141600120E2
:1019000084F85100900701D4D00722D020684168A4
:1019100021F003014160114DE06C40B10565E06CC0
:10192000FFF7A2F918B1606D40F040006065A06C4F
:10193000002809D00565A06CFFF796F9002803D0B0
:10194000606D40F04000606538BDC86888680090F0
:1019500038BD2046FFF784FF38BD00001D2D00086C
:1019600070B5040009D0606A002540B12561656149
:10197000A56294F8510040B10CE0012070BD606890
:10198000B0F5827FF4D0E561F2E784F8505020464C
:1019900000F044F8022084F851002068016821F02A
:1019A00040010160A088218900F4827001F40441A3
:1019B0000843A18901F400610843217C01F0020180
:1019C0000843217D01F001010843218B01F40071DE
:1019D0000843217F01F03801084394F8201001F0FA
:1019E00080010843218D01F40051084321680860FB
:1019F000A069042101EA104094F8241001F01001BC
:101A00000843216848602068C16921F40061C16110
:101A10006565012084F85100002070BDF0B587B0E5
:101A2000064614216846FEF7C8FC2E4930688842F5
:101A300055D12D480024016841F4804101600068BF
:101A400000F48040059028481038016841F00201F8
:101A500001600068694600F0020005904FF46040A4
:101A600000900220CDE9010403200390052004909A
:101A70001E48FFF7BDFA1F4D1D48C5E900040715B4
:101A8000AC60C5E903476C61AC61EC612C6228462F
:101A90006C62FFF7CBF908B1FFF79BF8F564AE6312
:101AA000144D134860351830E5E80204402091C514
:101AB000104845F814496030AC61EC612C626C62EE
:101AC000FFF7B4F908B1FFF784F8B56400221146B6
:101AD0002420AE63FFF7FCFB2420FFF7EBFB07B0ED
:101AE000F0BD0000003800404038024000040240D1
:101AF00058600240CC0000202DE9FF4F81B01D4608
:101B0000934604464FF001090E9EFFF773FB07460C
:101B100094F851006168012806D0B1F5827F3CD16C
:101B2000A168C9BB042838D10298002871D0BBF144
:101B3000000FFBD0002DF9D094F8500001282CD0D4
:101B40004FF0010A84F850A094F85100042802D004
:101B5000052084F851004FF00008C4F85480C4F800
:101B600038B0E587A58702992163E586A586C4F884
:101B70004080C4F8448020680168490603D40168A5
:101B800041F040010160E068B0F5006F606808D086
:101B9000F0B3012D49D081E0FFE7022005B0BDE898
:101BA000F08F08B1012D39D1206B21680088C86001
:101BB000206B801C2063E08E401EE0862EE02068B3
:101BC000816889070FD5E18E69B1B9F1010F0AD19A
:101BD000216B0988C160206B801C2063E08E401E51
:101BE000E0864FF0000920688168C9070CD0E18FBA
:101BF00051B1C068A16B0880A06B801CA063E08F0E
:101C0000401EE0874FF00109FFF7F4FAC01B01E026
:101C10000BE067E0B04201D3701C50D1E08E002889
:101C2000CDD1E08F0028CAD13EE0206B216800783A
:101C30000873206B401C2063E08E401EE0862DE080
:101C40002068816889070FD5E18E69B1B9F1010F6C
:101C50000AD1216B09780173206B401C2063E08E50
:101C6000401EE0864FF0000920688168C9070CD04B
:101C7000E18F51B1C068A16B0870A06B401CA063DC
:101C8000E08F401EE0874FF00109FFF7B3FAC01B59
:101C9000B04202D3701C01D011E086B1E08E002862
:101CA000CED1E08F0028CBD13A463146204601F014
:101CB0003DF850B12020606584F8508012E084F82F
:101CC00051A084F85080032068E7A06818B9206804
:101CD000C1688068009084F851A084F85080606DDD
:101CE0000028F1D0012059E710B5401EB0F1807FE7
:101CF00001D3012010BD4FF0E02460610F21601777
:101D000001F00BFC0020A06107202061002010BD25
:101D10007047704770B590F83C20012A32D00124FA
:101D200080F83C40022280F83D2003685A689D6894
:101D300022F070060A6832435A60134B02689A42D6
:101D400014D0B2F1804F11D0104B9A420ED0104BEC
:101D50009A420BD00F4B9A4208D00F4B9A4205D0B3
:101D60000E4B9A4202D00E4B9A4204D1496825F09C
:101D700080031943916080F83D40002180F83C10B9
:101D8000084670BD022070BD000001400004004004
:101D900000080040000C00400004014000400140E9
:101DA0000018004010B5040003D094F83D0010B1B5
:101DB00007E0012010BD002084F83C00204600F020
:101DC0001FF8022084F83D00211D206801F0CCF8A6
:101DD000012084F8460084F83E0084F83F0084F82F
:101DE000400084F8410084F8420084F8430084F8FD
:101DF000440084F8450084F83D00002010BD000038
:101E000008B50068B0F1804F12D10A48016841F06E
:101E1000010101600068002200F0010000901146FD
:101E20001C20FFF755FABDE808401C20FFF742BA16
:101E300008BD00004038024090F83D10012901D053
:101E400001207047022180F83D100168CA6842F005
:101E50000102CA6000681149884214D0B0F1804F75
:101E600011D00F4988420ED00E4988420BD00E493E
:101E7000884208D00D49884205D00D49884202D0D9
:101E80000C49884204D1816801F00701062903D07A
:101E9000016841F00101016000207047000001402D
:101EA0000004004000080040000C00400004014015
:101EB000004001400018004070B5044690F83C0016
:101EC0000025012817D0012684F83C60022084F800
:101ED0003D002068826822F0770222F47F4282600F
:101EE0000868502838D00DDC20284FD005DC90B38E
:101EF000102811D14AE0022070BD302846D0402879
:101F00000AD13BE060282FD070280DD0B0F5805F5B
:101F100003D0B0F5005F12D0012584F83D600020A9
:101F200084F83C00284670BDCB68D1E901212068C7
:101F300001F082F82068816841F0770109E0CB6800
:101F4000D1E90121206801F077F82068816841F427
:101F500080418160E1E719E0CA684968206801F0C2
:101F60007DF85021206806E0CA684968206801F0C1
:101F700086F86021206801F069F8CEE7CA684968F0
:101F8000206801F06BF840212068F4E722680146E0
:101F90001046F0E770472DE9F04104460068C66836
:101FA00005694FF00007A90713D5B10711D5F91E30
:101FB000016101202077206880698007204602D0D7
:101FC000FFF7E8FF04E000F07EF8204600F07CF820
:101FD0002777680716D5700714D521686FF00400BD
:101FE0000861022020772068806910F4407F204635
:101FF00002D0FFF7CFFF04E000F065F8204600F0C4
:1020000063F82777280715D5300713D521686FF0B7
:1020100008000861042020772068C06980072046F6
:1020200002D0FFF7B7FF04E000F04DF8204600F0C3
:102030004BF82777E80616D5F00614D521686FF01F
:1020400010000861082020772068C06910F4407FE4
:10205000204602D0FFF79EFF04E000F034F820464F
:1020600000F032F82777E80708D0F00706D021689B
:102070006FF001000861204600F027F8280608D517
:10208000300606D521686FF0800008612046FFF712
:102090003FFE680608D5700606D521686FF040003F
:1020A0000861204600F012F8A8060AD5B00608D547
:1020B00021686FF0200008612046BDE8F041FFF77D
:1020C00028BEBDE8F0817047704770477047704781
:1020D00070470000F8B5016804460868CA684B6993
:1020E00010F00F0F4FF0000559D003F0010602F475
:1020F0009077374365D0C10705D0D10503D5616C12
:1021000041F001016164410705D5D90703D0616C35
:1021100041F002016164810705D5D90703D0616CE4
:1021200041F004016164010707D502F02001314349
:1021300003D0616C41F008016164616C00293AD000
:10214000800604D5900602D5204601F08AF8206862
:102150004069616CC0F38010090700D460B3204669
:1021600001F04AF820684069400621D52068143003
:1021700050E8001F21F0400140E80012002AF5D18C
:10218000E06BA8B172490165E06BFEF76DFD0028B8
:1021900011D0E06B016D01B0BDE8F0400847830647
:1021A0000FD593060DD52046BDE8F84001F059B88B
:1021B0002046FFF78DFFF8BD2046FFF789FF6564D5
:1021C000F8BD266B2023012E7ED1C6067CD5D6060F
:1021D0007AD508684868009048694FF002064006C2
:1021E0004DD5E26B106840684FF480770004000C16
:1021F0003AD0A18D814237D9E085D069B8422DD03F
:1022000020680C3050E8001F21F4807140E8001273
:10221000002AF5D12068143050E8001F21F0010198
:1022200040E80012002AF5D12068143050E8001F61
:1022300021F0400140E80012002AF5D184F8423034
:10224000256320680C3050E8001F21F0100140E8A1
:102250000012002AF5D1E06BFEF7BDFC6663A08D8D
:10226000E18D401A81B206E0A18D8142A8D1D069EA
:10227000B842A5D166632046FFF729FFF8BDA08DBF
:10228000E18D401A81B2E08D0028F7D00029F5D009
:1022900020680C3050E8002F22F4907240E80027AC
:1022A000002FF5D12068143050E8002F22F00102F1
:1022B00040E80027002FF5D184F8423025632068DC
:1022C0000C3050E8002F00E006E022F0100240E859
:1022D0000023002BF3D1CDE705062BD5150629D514
:1022E00094F841002128C9D1A068B0F5805F01D1E0
:1022F0002069B0B1206A411C2162216800784860E1
:10230000E08C401E0004000CE084B7D12068C16856
:1023100021F08001C1602068C16841F04001C160C6
:10232000F8BD206A0088C0F308004860206A801C5D
:102330002062E5E74006F3D55006F1D5CA6820468D
:1023400022F04002CA6084F8413000F025FBF8BD5D
:10235000B130000870B5040004D094F841000025A5
:1023600010B106E0012070BD84F84050204600F016
:1023700023F8242084F841002068C16821F400512A
:10238000C160204600F0CEFF2068016921F4904131
:1023900001612068416921F02A0141612068C1681A
:1023A00041F40051C1606564202084F8410084F844
:1023B00042006563002070BD2DE9F04F87B00446F0
:1023C00014216846FDF7F9FFDA48DFF86483103816
:1023D0002668D84B02210322402705154FF00069DB
:1023E0004FF0000C464570D1D3F800C000264CF4E5
:1023F000801CC3F800C01B6803F4801305930368B6
:1024000043F004030360036803F0040305930368C7
:1024100043F00803036000688B4600F00800059055
:10242000C802CDE9000B0DF1080C90464FF0080AE8
:102430008CE840056946C048FEF7DAFD0420CDE986
:10244000000B0DF1080B69468BE84005BB48FEF711
:10245000CFFDDFF8F082BA494046C8F80010C0E965
:102460000196C0E90365C8F81460C8F81860C8F898
:102470001C60C8F82060C8F82460FEF7D7FC08B1DB
:10248000FEF7A7FBAF4EC4F83C80AD486036C8F8F5
:102490003840A830B760C6E900090020C6E9030546
:1024A0007061B061F061306270623046FEF7BEFC70
:1024B00008B1FEF78EFBA663002211463520B463F7
:1024C000FEF706FF352069E0FFE7DFF87C82DFF8E2
:1024D00064B24FF0C00E0BF1040B4FF4807A464506
:1024E00061D1E0466646DBF800C04CF0100CCBF83A
:1024F00000C0DBF8003003F010030593036843F0DD
:10250000020303600068CDF800E000F002000590CF
:10251000CDE901160720CDE9032069468B48FEF777
:1025200067FDDFF820B28A490BF1C00B5846CBF8A3
:102530000010C0E90196C0E90365CBF81460C0E95A
:10254000066ACBF82060CBF82460FEF76FFC08B178
:10255000FEF73FFB7F4EC4F83CB07D48CBF83840D7
:102560007830B760C6E90009C6E90385C6F814806B
:10257000C6F81880C6F81C80C6F820803046C6F819
:102580002480FEF753FC08B1FEF723FBA66300226C
:1025900011462520B463FEF79BFE2520FEF78AFE38
:1025A00007B0BDE8F08FDFF8B08146455DD1E04669
:1025B0006646D3F800C04CF4003CC3F800C01B686A
:1025C00003F400330593036843F0080303600068D5
:1025D00000F00800059060208DE843000720CDE959
:1025E000032069465548FEF703FDDFF868B15449FA
:1025F0000BF1600B78315846CBF80010C0E901961A
:10260000C0E90365CBF81460C0E9066ACBF8206026
:10261000CBF82460FEF70AFC08B1FEF7DAFA4D4E5B
:10262000C4F83CB04648C036CBF838409030B7606C
:10263000C6E90009C6E90385C6F81480C6F8188003
:10264000C6F81C80C6F820803046C6F82480FEF705
:10265000EDFB08B1FEF7BDFAA66300221146262065
:10266000B463FEF735FE262098E73C4B9E4297D197
:10267000E1466646DBF800C04CF0200CCBF800C009
:10268000DBF8003003F020030593036843F00403F4
:1026900003600068CDF800E000F004000590CDE98B
:1026A00001160820CDE9032069462348FEF7A0FC67
:1026B0002749DFF8AC80183940464FF0206BC8F846
:1026C0000010C0E901B6C0E90365C8F81460C0E9AC
:1026D000066AC8F82060C8F82460FEF7A7FB08B1B6
:1026E000FEF777FA1E4EC4F83C8019486036C8F8E9
:1026F00038406030B760C6E9000BC6E90395C6F8FC
:102700001490C6F81890C6F81C90C6F82090304671
:10271000C6F82490FEF78AFB08B1FEF75AFAA663C2
:10272000002211464720B463FEF7D2FD472035E76B
:10273000005000404038024000080240000C0240B7
:1027400010600240F402002000100140000402402A
:102750004064024014040020004400400014014082
:102760003405002090F84230202B01D00220704721
:1027700021B11AB10023036300F05ABE0120704753
:1027800070B504462DED028B55489FED568B844263
:1027900033D15649564D48788A7800F07F0002F0D0
:1027A0007F0240EAC210CA7802F07F0240EA82301B
:1027B0000A7902F07F0240EA42504A7940EA027206
:1027C0002A60C87900EE102A097A00F07F0001F033
:1027D0007F01B8EEC00A40EAC110A880DFED450ACB
:1027E00080EE201A85ED021A01F0F3F853EC182B55
:1027F00001F01AF901F0BEF8A8813F48844234D1B3
:102800003E49DFED3F0A3A4D48788A7800F07F0074
:1028100002F07F0240EAC210CA78103502F07F024F
:1028200040EA82300A7902F07F0240EA42504A7957
:1028300040EA027200EE102A2A60C879B8EEC00A97
:10284000097A00F07F0001F07F0180EE201A40EA53
:10285000C110A88085ED021A01F0BBF853EC182BCB
:1028600001F0E2F801F086F8A8812648844234D1CC
:102870002548DFED260A1E4C4178827801F07F0161
:1028800002F07F0241EAC211C278203402F07F02D6
:1028900041EA8231027902F07F0241EA42514279F3
:1028A00041EA027100EE101A2160C279B8EEC00A46
:1028B000007A02F07F0200F07F0080EE201A42EAE8
:1028C000C010A08084ED021A01F083F853EC182B9D
:1028D00001F0AAF801F04EF8A081BDEC028B70BDAA
:1028E0001C020020000000000000B03F5400002047
:1028F000700600200099BF47640200205E0000209F
:1029000080C2C047AC0200206800002000CAC04757
:102910007047000070B5044690F84100202801D0AF
:10292000022070BD01B3FAB12162A284E2840020CA
:102930006064212384F84130A56B144BEB63A56BD5
:10294000134B2B64A56B134BEB64A36B18652068CA
:102950001346A56B021D2846FEF7D2FA30B11020AF
:102960006064202084F84100012070BD21686FF070
:10297000400008602068143050E8001F41F08001DA
:1029800040E80012002AF5D1002070BDAD310008EA
:10299000EF310008BF30000870477047FEE70000C5
:1029A000314808B5016841F480010160016801F413
:1029B00080010091016841F400110160006800226B
:1029C00000F40010009011460B20FEF781FC0B2054
:1029D000FEF770FC002211460E20FEF779FC0E2057
:1029E000FEF768FC002211460F20FEF771FC0F2055
:1029F000FEF760FC002211461020FEF769FC102053
:102A0000FEF758FC002211461120FEF761FC112050
:102A1000FEF750FC002211462F20FEF759FC2F2014
:102A2000FEF748FC002211463920FEF751FC392000
:102A3000FEF740FC002211463A20FEF749FC3A20FE
:102A4000FEF738FC002211464520FEF741FC4520E8
:102A5000FEF730FC002211464620FEF739FCBDE8A7
:102A600008404620FEF726BC303802402DE9F043EE
:102A700087B014216846FDF7A0FC3B48002401689C
:102A800041F004010160016801F004010591016851
:102A900041F008010160016801F008010591016839
:102AA00041F002010160016801F002010591016835
:102AB00041F001010160016801F001010591016827
:102AC00041F080010160016801F080010591016819
:102AD00041F0100101600068244F00F010004FF435
:102AE00000650590002229463846FEF77EFBDFF898
:102AF0008080002204214046FEF777FBDFF87490C7
:102B00006E00002231464846FEF76FFB0095012516
:102B1000CDE90154694638460394FEF769FA04206A
:102B20000090CDE90154694640460394FEF760FAEF
:102B30004FF404100096CDE9010469460E48FEF7F3
:102B400057FA0096CDE90154694648460394FEF7CA
:102B50004FFA002201212820FEF7BAFB2820FEF7B9
:102B6000A9FB07B0BDE8F083303802400000024006
:102B7000000802400004024000100240104810B556
:102B80000E4901604FF48271416000218160012291
:102B9000C160C0E90412520282610822C0E9072123
:102BA000416281620A21C162FEF7DAFE002803D089
:102BB000BDE81040FEF70DB810BD00000038004021
:102BC0007400002010B586B00024164800940194CB
:102BD0000294039404944FF08041059401605321C2
:102BE000C0E9011440F2E731C0E903148461FFF742
:102BF000D9F808B1FDF7EDFF4FF480500090694619
:102C00000848FFF759F908B1FDF7E3FF049404A958
:102C100004480594FFF77EF8002801D0FDF7D9FF9E
:102C200006B010BD8C0100200C4810B50A490160A7
:102C30004FF461214160002181600C22C160C0E934
:102C400004128161C161FFF785FB002803D0BDE854
:102C50001040FDF7BEBF10BD00500040D401002061
:102C60000C4810B50A4901604FF4E1214160002190
:102C700081600C22C160C0E904128161C161FFF76B
:102C800069FB002803D0BDE81040FDF7A2BF10BDCE
:102C9000001001401C0200200C4810B50A490160D8
:102CA0004FF4E1214160002181600C22C160C0E944
:102CB00004128161C161FFF74DFB002803D0BDE81C
:102CC0001040FDF786BF10BD0044004064020020A4
:102CD0000C4810B50A4901604FF4E1214160002120
:102CE00081600C22C160C0E904128161C161FFF7FB
:102CF00031FB002803D0BDE81040FDF76ABF10BDCE
:102D000000140140AC020020FEE7FEE7704700001F
:102D10000148FEF7A7BD00007400002010B5806BCD
:102D20000021C187C186FEF79BFD10BDF8B5154691
:102D30000E460B46009204460122022100F02CF8B8
:102D4000A0B9134813490068B0FBF1F04FF47A7151
:102D5000484300906068B0F5827F0DD13346002271
:102D600080212046009500F017F870B1606D40F0AA
:102D7000200060650320F8BD009830B1401E00902F
:102D800020688068C0430006F6D50020F8BD00002A
:102D90001C00002000366E012DE9F8431E469146C6
:102DA00088460446089DFEF725FA401B351AFEF7B3
:102DB00021FA074626480068C0F3CB3068430AE092
:102DC000701C09D0FEF716FAC01BA8420FD275B1CD
:102DD0000098B8B3401E00902068816838EA01006E
:102DE00033D000214945EBD10020BDE8F8832068AD
:102DF000416821F0E00141606068B0F5827F0BD14D
:102E0000A068B0F5004F02D0B0F5806F04D1206803
:102E1000016821F040010160A06AB0F5005F09D1AE
:102E20002068016821F4005101602068016841F4C4
:102E300000510160012084F85100002084F8500006
:102E40000320D2E7FFE70025C6E70121CAE700001B
:102E50001C0000207047FEF7D3B9000030B593B0D6
:102E600030216846FDF7A9FA14210CA8FDF7A5FA50
:102E70001D480025016841F080510160006800F0A4
:102E8000805011901948016841F480410160006848
:102E9000022400F480401190012000900004019071
:102EA0008001CDE9064008200890A820CDE909045A
:102EB00004200B906846FEF71DFB08B172B6FEE7D2
:102EC0000CA90F2081E831004FF4A0500F904FF46F
:102ED0008050109005210CA8FEF72CFA002801D094
:102EE00072B6FEE713B030BD4038024000700040BB
:102EF0000248016841F470010160704788ED00E00C
:102F000000B589B0012213491348FFF703FD0122E0
:102F100010491248FFF7FEFC01220E491048FFF746
:102F2000F9FCFDF70DFE0B484168491CA1F5407204
:102F30004160E93A04D1002141608168491C816007
:102F40006846FDF70BFB09B006485DF804EBFFF798
:102F500022B80000040000201C02002064020020AF
:102F6000AC0200208C010020F0B50268274B284DF0
:102F7000284E294F294C4FF0804C984209D060458B
:102F800007D0A84205D0B04203D0B84201D0A04239
:102F900004D122F0700E4A6842EA0E0298421BD019
:102FA000604519D0A84217D0B04215D0B84213D00E
:102FB000A04211D01A4DA8420ED01A4DA8420BD0F3
:102FC000194DA84208D0194DA84205D0184DA84265
:102FD00002D0184DA84203D122F44075CA682A4392
:102FE0004D6922F080022A438D68C5620D688562B2
:102FF000984201D0A04201D109690163016841F002
:1030000004010160012141610260F0BD0000014046
:103010000004004000080040000C00400004014093
:1030200000400140004401400048014000180040B9
:10303000001C00400020004010B5846842EA0322D2
:1030400024F47F440A432243826010BD826822F048
:1030500070020A4342F007018160704710B5036AAD
:10306000046A24F001040462846924F0F00444EA50
:10307000021423F00A020A438461026210BD10B5F3
:10308000036A046A24F010040462846923F0A00334
:1030900024F4704444EA023243EA0111826101627D
:1030A00010BD00000148FFF715B80000D401002052
:1030B00010B5806B0021C185FFF70AF810BD70B50F
:1030C000846B2068406994F84110C0F3C01000255B
:1030D000212904D118B1E584204600F0B4F8206815
:1030E000406994F84210C0F38010222904D118B12D
:1030F000E585204600F080F8606C40F010006064C8
:103100002046FEF7E5FF70BD10B50146806B0968EB
:1031100009684FF00002C9052ED4C28501680C3140
:1031200051E8003F23F4807341E80034002CF5D1CE
:103130000168143151E8003F23F0010341E80034F5
:10314000002CF5D10168143151E8003F23F0400311
:1031500041E80034002CF5D1202180F84210016BA9
:10316000012909D101680C3151E8003F23F0100317
:1031700041E80034002CF5D14263016B012902D0F3
:10318000FFF7FEFA10BD818DFEF7A1FF10BD10B54F
:10319000806B01214163016B012902D0FFF7B8FB6D
:1031A00010BD818D4908FEF792FF10BD10B5014694
:1031B000806B09680968C90516D40021C1840168BB
:1031C000143151E8002F22F0800241E80023002B47
:1031D000F5D101680C3151E8002F42F0400241E87E
:1031E0000023002BF5D110BDFFF7D6FB10BD10B5A5
:1031F000806BFFF7D2FB10BD01680C3151E8002F46
:1032000022F4907241E80023002BF5D101681431BB
:1032100051E8002F22F0010241E80023002BF5D1F4
:10322000016B012909D101680C3151E8002F22F00E
:10323000100241E80023002BF5D1202180F8421034
:1032400000210163704701680C3151E8002F22F022
:10325000C00241E80023002BF5D1202180F8411065
:10326000704708B590F84210222901D0022008BD0D
:1032700082684FF480539A4201D1016921B1816A79
:103280009A421BD04AB10AE00268816A5268C2F3CE
:1032900008020A80816A891C08E0026972B102682A
:1032A000526802F07F020A70816A491C8162C18DF6
:1032B000491E0904090CC18503D01BE0026852684D
:1032C000F1E70168CA6822F02002CA600168CA6892
:1032D00022F48072CA6001684A6922F001024A61E0
:1032E000202180F8421000214163026B012A03D0A3
:1032F000FFF746FA002008BD016301680C3151E870
:10330000002F22F0100241E80023002BF5D10168C4
:103310000A68D20602D50A6849680091818DFEF7D5
:10332000D6FEE7E770B5044600680169E26821F45B
:103330004051114301612169A068E2690843616954
:10334000114308432168CA6849F20C639A43024357
:10335000CA6020684169A26921F44071114341614A
:1033600031492068884202D03049884202D1FEF7B4
:103370008BF801E0FEF778F8E26900231921642553
:103380003226B2F5004F626828D0A0FB0101930FEE
:103390009200FCF769FF0146B0FBF5F06FF01802F0
:1033A000504301EB800006EB0010B0FBF5F000F09D
:1033B000F002B1FBF5F002EB0012B1FBF5F06FF09B
:1033C0001803584301EB800006EB0010B0FBF5F04A
:1033D00000F00F0021681044886070BDA0FB01015F
:1033E00092185B41FCF740FF0146B0FBF5F002018B
:1033F000B1FBF5F06FF01803584301EB800006EBCA
:10340000C000B0FBF5F000F0F80002EB4002B1FBA9
:10341000F5F0584301EB800006EBC000B0FBF5F07F
:1034200000F00700D6E70000001001400014014042
:1034300038B58162044682850020134660642222EA
:1034400084F84220E56B1F4AEA63E56B1E4A2A6452
:10345000E56B1E4AEA64E26B10650A462168E06B80
:10346000091DFDF74DFD30B110206064202084F867
:103470004200012038BD2068016840680090206942
:1034800048B120680C3050E8001F41F4807140E8DA
:103490000012002AF5D12068143050E8001F41F0D6
:1034A000010140E80012002AF5D12068143050E8EC
:1034B000001F41F0400140E80012002AF5D1002031
:1034C00038BD0000093100088F310008BF30000806
:1034D000044882B00068016840680090014802B06A
:1034E000FEF7F8BD1C020020044882B000680168A5
:1034F00040680090014802B0FEF7ECBD6402002075
:10350000044882B00068016840680090014802B039
:10351000FEF7E0BDAC020020FEE70907090E002817
:1035200004DB00F1E02080F80014704700F00F0089
:1035300000F1E02080F8141D7047002110B5C31C75
:103540000A469C5C521C61400C2AFAD300F10F031E
:1035500000229C5C521C61400C2AFAD330F81B3FBD
:10356000DAB24A40C3F3072143885140DAB24A40F5
:10357000C3F3072183885140DAB24A40C3F30721DD
:10358000C0885140C2B24A40C0F30720504010BD2D
:1035900071B54FF461754FF0E023104E00981AE0BA
:1035A0002C46A04200D804469869A4EBC40101EB64
:1035B000410110EBC10105D49A69824208DA8A42BE
:1035C000FADA05E08A1999698142FCDD9142FADC58
:1035D0000098001B00900028E2D178BD40900200C6
:1035E000FDF716FEFFF73AFCFFF740FAFFF7D8F9B0
:1035F000FFF736FBFFF7E6FAFFF74EFBFFF768FB36
:10360000FFF7BCFAFFF710FB0A220F490F48FFF73C
:10361000A9F80D490A220A310D48FFF7A3F80A4913
:103620000A2214310B48FFF79DF8FCF72BFFFDF73A
:1036300091F90948FEF700FC084C00BFFDF73AF984
:1036400084ED000AFAE70000540000201C0200206C
:1036500064020020AC0200208C0100200000002049
:1036600021F00042A2F16052B2F5801F01F0004348
:1036700028BFD2F17F6C0BD95FEA001C43EAC2027B
:1036800042EB507018BF704728BF20F00100704710
:10369000B2F5801FBCBF184670474FEA410C1CF5BD
:1036A000001F02D2084600F0C2BA70B500F066FAF8
:1036B00000000089FFF7F6BF4FF00040A0F5800042
:1036C000704700002DE9C04130B4DFF8A0C23CEAE9
:1036D000111418BF3CEA131400F0EC8081EA0305D2
:1036E0001CEA111444EAD57418BF1CEA131500F043
:1036F000C780A4EB05044FF0004545EAC12145EA27
:10370000C32341EA505143EA525304F17F74994272
:1037100004F500344FEAC0204FEAC22208BF9042AD
:1037200000F09C804FEA13650FF24016765D4FEA79
:10373000134506FB05F7C7F1807706FB07F74FEA4D
:10374000D737A7FB03687642C8F58038A7FB06CEBB
:1037500038BFA8F1010807FB08E64FF0000EA6FBF2
:10376000028CE6FB03CEDCF1000CCEF1004E38BF3C
:10377000AEF1010EA6FB0C584FF000074FF000050C
:10378000E6FB0E87A1FB08C6A0FB07CE16EB0E06D4
:1037900045F10005E1FB076515F1E04E7EBFA4F59C
:1037A00080345FEA46066D4116F1800745F1000559
:1037B0004FEA17274FEA066647EA0567A6F1DE4695
:1037C000B6F1805F4FEA15251FD9384624F0010C69
:1037D00005EBC471BCF1FE6F01EB0C1102D8F0BC1B
:1037E000BDE8008124425CBF01F5801E9EEAC47FD3
:1037F00002D4F0BCBDE80081244238D4F0BCA1F171
:10380000C041BDE8004100F007BA4FEAD22242EAC7
:1038100043524FEAD323A7FB02864FEAD02040EA67
:10382000415007FB03661EEA0E0F4FEAD12105FB4C
:10383000026658BFA6EB0056B6EB00564FEA520E92
:103840004EEAC37E18EB0E0E56EB530EBDD518EBA9
:1038500002085E417F1C55F10005B6E74FF4801564
:103860004FF000074FF000064FF00008ADE7F0BC46
:103870004FF0000001F1C04101F00041BDE80081BE
:1038800011EA0C1F0CEA131500D00CE013EA0C1F10
:1038900000F025804FF00000F0BC81EA030101F048
:1038A0000041BDE80081F0BCBDE8004181EA0301B0
:1038B00000F0B2B9F0BCBDE8004170B500F05EF9AF
:1038C000097EFC3E00F007B881EA03014FF00000DA
:1038D00001F00041704781EA030100F09DB9F0BC9E
:1038E000BDE800414FF0000021497047FFFDFBF9A2
:1038F000F7F5F4F2F0EEEDEBE9E8E6E4E3E1E0DE23
:10390000DDDBDAD8D7D5D4D3D1D0CFCDCCCBCAC894
:10391000C7C6C5C4C2C1C0BFBEBDBCBBBAB9B8B7BB
:10392000B6B5B4B3B2B1B0AFAEADACABAAA9A8A8AE
:10393000A7A6A5A4A3A3A2A1A09F9F9E9D9C9C9B7C
:103940009A99999897979695959493939291919027
:103950008F8F8E8E8D8C8C8B8B8A898988888787B8
:103960008685858484838382828181800000FF072D
:103970000000F87F4FEA41034FEA5353A3F58063F9
:10398000D3F11E03C8BFD3F1210C0CDD4FF0004270
:1039900042EAC12242EA505232FA03FC8CEAE17C4C
:1039A000ACEBE1707047102BC4BF0020704703F5EB
:1039B000787CBCF1FF3F04D06FF0004282EA210026
:1039C000704770B500F0DAF8499224800020704703
:1039D000F2E710F0004248BF4042B0FA80F310FA1C
:1039E00003F10AD0C3F11D0303F580634FEA415090
:1039F00002EB035202EBD12170474FF000007047F9
:103A0000B0FA80F310FA03F10AD0C3F11D0303F5F5
:103A100080634FEA41504FEA035202EBD1217047D5
:103A20004FF0000070470000DFF848C170B51CEA95
:103A3000111E1EBF1CEA13159EEA0C0F95EA0C0F0F
:103A400000F06F8081EA030423EA4C134EEAD47E2F
:103A500021EA4C1141F4801143F48013AE44A1FBE0
:103A6000024CA0FB0365AEF17F7E361955EB0C05C9
:103A7000A1FB034C4CF10003A0FB021C16EB0C064F
:103A8000654153F10003094218BF46F0010613F4E3
:103A9000007F0BD14FEA03314FEA0530340341EA8E
:103AA000155140EA16506FF003020AE04FEAC321B5
:103AB0004FEAC520F40241EA555140EA56506FF0F2
:103AC000020202EB2E4201EB025585EACE710AD0CA
:103AD0005FEA440C18BF24F0004450F1000041F1AB
:103AE000000120EAD47040F2FE7C624500D270BD35
:103AF000A84214BF4FF080444FF04044002E08BF4E
:103B00000024BEF1806FA8BFA1F1C041BDE87040A4
:103B100080F282804FF0000001F1C04101F00041CD
:103B200070479EEA0C0F0CEA131518BF95EA0C0FAC
:103B300006D04FF0000081EA030E0EF0004170BD88
:103B400000F01CF88900013E00F007B800F009B849
:103B50004FEA430C5FEA5C5C08D081EA030100F0A5
:103B60005BB84FEA410C5FEA5C5CF6D14FF00000B5
:103B7000014970470000FF070000F87F0EF1020EB8
:103B80002EF0030E5EF8046B364205D4012A43EB97
:103B9000030515F5001F12D8012841EB010C1CF597
:103BA000001F0CD80ED14FEAD17C15F5001F0CEB8D
:103BB0004C0C0CF1020C08BF4CEBD37C04E04FF032
:103BC000080C01E04FEAD37C0CEB4C0526FA05F615
:103BD00006F00706B6F1040C06D20EEB860CBDE823
:103BE00070404CF0010C6047DFE80CF0090B02025A
:103BF0004FF000414FF00000A1F5002170BD1946C3
:103C00001046012851EB010418BFD4F5001484BFFD
:103C1000002001F0004170BD0808A0F500114FEA36
:103C2000310170474FF04070E1EE100A7047FF21FC
:103C300041EAD050C0057047000610160006101665
:103C4000000000000000000001020304060708094C
:103C50000000000001020304783C0008000000207E
:103C600054000000C4010008CC3C000854000020AF
:103C7000D40C0000E001000800000000000000007B
:103C80000000000000000000010000001000000023
:103C9000000000000024F40000000000000000000C
:103CA0000000000000000000000000000000000014
:103CB0000000000000000000000000000000000004
:0C3CC000000000000000000000000000F8
:040000050800018965
:00000001FF
